:020000040800F2
:100000000018002009210008AD1A0008AF1A0008E6
:1000100000000000000000000000000000000000E0
:10002000000000000000000000000000B11A0008FD
:100030000000000000000000B31A0008B51A000814
:10004000592100080000000059210008592100082A
:100050005921000859210008592100085921000898
:10006000000000005921000859210008592100080A
:1000700059210008592100085921000800000000FA
:10008000BD1A00080000000000000000592100080F
:1000900000000000592100085921000859210008DA
:1000A000000000005921000800000000592100084C
:1000B00059210008000000000000000000000000BE
:1000C00010B5064C2378002B07D1054B002B02D02E
:1000D000044800E000BF0123237010BD740000201D
:1000E000000000000C380008044B10B5002B03D0B2
:1000F0000349044800E000BF10BDC04600000000F6
:10010000780000200C380008002243088B4274D38A
:1001100003098B425FD3030A8B4244D3030B8B4208
:1001200028D3030C8B420DD3FF22090212BA030C11
:100130008B4202D31212090265D0030B8B4219D3F2
:1001400000E0090AC30B8B4201D3CB03C01A524112
:10015000830B8B4201D38B03C01A5241430B8B425A
:1001600001D34B03C01A5241030B8B4201D30B0343
:10017000C01A5241C30A8B4201D3CB02C01A52416A
:10018000830A8B4201D38B02C01A5241430A8B422D
:1001900001D34B02C01A5241030A8B4201D30B0216
:1001A000C01A5241CDD2C3098B4201D3CB01C01A30
:1001B000524183098B4201D38B01C01A524143093A
:1001C0008B4201D34B01C01A524103098B4201D328
:1001D0000B01C01A5241C3088B4201D3CB00C01A95
:1001E000524183088B4201D38B00C01A524143080D
:1001F0008B4201D34B00C01A5241411A00D2014632
:10020000524110467047FFE701B5002000F0F0F8BA
:1002100002BDC0460029F7D076E7704703460B437E
:100220007FD4002243088B4274D303098B425FD3EF
:10023000030A8B4244D3030B8B4228D3030C8B421B
:100240000DD3FF22090212BA030C8B4202D3121201
:10025000090265D0030B8B4219D300E0090AC30BD6
:100260008B4201D3CB03C01A5241830B8B4201D383
:100270008B03C01A5241430B8B4201D34B03C01A6C
:100280005241030B8B4201D30B03C01A5241C30AE4
:100290008B4201D3CB02C01A5241830A8B4201D355
:1002A0008B02C01A5241430A8B4201D34B02C01A3F
:1002B0005241030A8B4201D30B02C01A5241CDD2E4
:1002C000C3098B4201D3CB01C01A524183098B422F
:1002D00001D38B01C01A524143098B4201D34B0118
:1002E000C01A524103098B4201D30B01C01A52417B
:1002F000C3088B4201D3CB00C01A524183088B4202
:1003000001D38B00C01A524143088B4201D34B00EA
:10031000C01A5241411A00D201465241104670475C
:100320005DE0CA0F00D04942031000D34042534061
:1003300000229C4603098B422DD3030A8B4212D321
:10034000FC22890112BA030A8B420CD38901921153
:100350008B4208D3890192118B4204D389013AD090
:10036000921100E08909C3098B4201D3CB01C01A65
:10037000524183098B4201D38B01C01A5241430978
:100380008B4201D34B01C01A524103098B4201D366
:100390000B01C01A5241C3088B4201D3CB00C01AD3
:1003A000524183088B4201D38B00C01A5241D9D2EB
:1003B00043088B4201D34B00C01A5241411A00D26C
:1003C0000146634652415B10104601D34042002B68
:1003D00000D54942704763465B1000D3404201B5E7
:1003E000002000F005F802BD0029F8D016E770479C
:1003F0007047C046F8B5A026040008252027F6055A
:1004000000223900300002F0F3F863B20122002B21
:1004100000DB00228021300002F0EAF839003000D1
:10042000012202F0E5F8640040213000E4B202F05D
:10043000D9F8002801D001231C43013DEDB2002D65
:10044000DED1A0202A002021C00502F0D1F8200032
:10045000F8BDF8B58027A02605000C003F01F60581
:1004600039000022300002F0C3F82800FFF7C2FF75
:100470002000FFF7BFFF39003000012202F0B8F87A
:10048000F8BD70B58026A02504003601ED053100C9
:100490000022280002F0ACF82000FFF7ABFF00209C
:1004A000FFF7A8FF040031002800012202F0A0F8A5
:1004B000200070BD70B506000C00A0208021150042
:1004C00009010022C00502F093F83000FFF792FF07
:1004D0006519AC4207D18021A02001220901C00585
:1004E00002F086F870BD2078FFF784FF0134F0E752
:1004F00070B506000C00A020802115000901002223
:10050000C00502F075F83000FFF774FF6519AC42C2
:1005100007D18021A02001220901C00502F068F85E
:1005200070BD0020FFF766FF20700134EFE770B563
:100530008025A0246D01E40500222900200002F09E
:1005400057F88E212020FFF784FF642000F050F937
:1005500029000122200002F04BF8642000F048F945
:1005600070BD70B58025A0246D01E405002229002E
:10057000200002F03DF88F212020FFF76AFF642061
:1005800000F036F929000122200002F031F8642041
:1005900000F02EF970BD70B50A000100A020FFF731
:1005A00089FF8021A02001224901C00502F020F826
:1005B000142000F01DF98021A0200022A024490170
:1005C000C00502F015F8E4051021200002F00AF839
:1005D000051EF9D10720FFF754FF702404402100C5
:1005E0002720FFF736FF2900E120FFF732FF200028
:1005F00070BD000030B51B4C1B4D24782D7885B0A4
:100600006419091940186946087068461B781288F1
:10061000C370089B110A1B8882705BBA8380099B98
:1006200041701B7883710A9B1B78C3710B9B1B68FD
:100630001BBA029300231A00838183736946C95C45
:100640000133521892B20F2BF8D16B461021684635
:10065000DA73FFF7A0FF04000A2000F0EBF8200097
:1006600005B030BD6D0300206C03002070B505009F
:10067000A0200E00C005102101F0B4FF0024A0420C
:100680001BD18021A02022004901C00501F0B0FF4C
:10069000320029006120FFF72BFF2100E220FFF745
:1006A000D8FE70212720FFF7D4FE8021A020012250
:1006B0004901C00501F09CFF0134200070BD00001D
:1006C00030B589B00522434904A803F095F8032208
:1006D000414902A803F090F80622404906A803F019
:1006E0008BF83F4B03221B783E4901AD03A82B70CA
:1006F00003F082F88021A02000224901C00501F00A
:1007000077FF5A215220FFF7A4FEA5215220FFF7C0
:10071000A0FE0021E120FFF79CFE0021E220FFF770
:1007200098FE70212720FFF794FE01212220FFF779
:1007300090FE03212320FFF78CFE2B4B19782129F3
:1007400004D105312520FFF784FE01E02C29F9D0E2
:1007500010213120FFF77DFE244C0522210030209E
:10076000FFF7A8FE210005222A20FFF7A3FE04A917
:1007700005223F20FFF79EFE06A906223A20FFF73A
:1007800099FE290001223920FFF794FE02A90322D5
:100790003E20FFF78FFE032203A93B20FFF78AFECE
:1007A00000213C20FFF755FE00213D20FFF751FEC0
:1007B000CB212620FFF74DFE00212420FFF749FE24
:1007C00000212120FFF745FE00213D20FFF741FEDB
:1007D00009B030BD383800083E38000842380008FB
:1007E000493800084B3800086A0300204F380008D9
:1007F000064B10B5064904001868FFF785FC6043F6
:10080000002800D110BDC0460138F9E730000020B3
:1008100000127A0000230121044A1380044B19704E
:1008200011888142FCD300221A707047780300209F
:100830007603002010B501F0D7FC10BD30B580253F
:10084000411804002D010020A94207D930BD002A1B
:1008500003D0E0180078107001320134A142F6D8BC
:100860000120F3E7F823012202211B06C018094BDF
:1008700010B5C00A996118605A60D8611A6201F017
:1008800025FD0549054801F0B1FDC04601F030FDE8
:1008900010BDC046900000209C000020A800002051
:1008A000F0B5040099B010201D000E910F9201F0D8
:1008B000E3FC0023EA18127810A9CA540133202B54
:1008C000F8D10E9A60180F9902F096FF2800FFF7F2
:1008D000C9FF01F0FBFC2B00203310AC0E93002766
:1008E000637801971B020093A37803971B0402937C
:1008F00002980399009A019B12184B412678E178DF
:1009000092197B41090605970491049805991218DC
:100910004B412179069707910698079912184B4188
:1009200061790897090209910898099912184B41B1
:10093000A1790A9709040B910A980B9912184B4157
:10094000E1790C9709060D910C980D9912184B41FD
:100950002900012001F008FDB84204D001F0C8FCD4
:10096000380019B0F0BD0E9B083508349D42B6D151
:1009700001F0BEFC044A102013680133136001F03B
:100980006FFC0120EDE7C0465803002010B586B08B
:1009900001AC0D4B220001210720FFF74FFF237808
:1009A000692B0FD0BC235B020293084B10210393E9
:1009B000074B0020049356235B42059302AA024B87
:1009C000FFF76EFF06B010BD0070000864010169FA
:1009D00001000001002307B501AA137001210820BE
:1009E000014BFFF75DFF07BD0070000807B500BAB7
:1009F000019004210C20024B01AAFFF751FF07BD13
:100A00000070000837B56D4606ACAB7024780B0A51
:100A100040BA2880EB702971AA7107216A46034BFE
:100A200000206C71FFF73CFF37BDC0460070000826
:100A3000F0B5204A204B87B01B7814781F4ADBB2F0
:100A40001278E4B2D2B203921D4A04AD16781D4A60
:100A5000F6B21278692A08D02A0001212B701A4BAD
:100A60000820FFF71DFF07B0F0BD042B10D801339D
:100A7000DBB2039A240401361202A419A4182B70C5
:100A8000230C64BA6B702A0004210F4B6C80E7E7DB
:100A9000052B01D00023ECE70C4F3800FFF7A6FF31
:100AA00001220B4B00211F60322013000092FFF740
:100AB000A9FFEFE709700008087000080A70000835
:100AC0000B7000080770000800700008FFFFFFAA05
:100AD0005C03002013B508216A4600200D4B1B68FB
:100AE00000930D4B1B68019313781C002A3C0F2CBC
:100AF0000AD8303B1370137801390001C9B21818B5
:100B000001320029F0D116BD1C00413C042CF2D862
:100B1000373BEFE72078000824780008014B18687D
:100B200000BA70470C70000830B50A4C246865BAEA
:100B30000580FF20240C1C70074B84431B68184061
:100B400004430C809DB203992D0A1B0C0D70137089
:100B500030BDC0460070000804700008F0B589B0D0
:100B60001422002103A802F01BFE04210124264BBD
:100B700002265A6BC5270A435A635A6BA0250A40BE
:100B800080210092009A5A6BED0522435A635A6BFA
:100B90007F0122400192019A5A6B1C4832435A63EA
:100BA0005B6B0022334002930902029B01F020FD9F
:100BB00000223900280001F01BFD80230596002645
:100BC0001B0203A9114803930494069601F056FCF6
:100BD000862328005B0003A903930496059401F083
:100BE0004DFC5023280003A903930496059601F0B9
:100BF00045FC280003A9039704940596069601F086
:100C00003DFC09B0F0BDC046001002400008005095
:100C100010B5134B134C01222360134B200063606B
:100C20000023E260A36023616361A361E361236247
:100C300001F00EFE002801D000F01EFF80212000F0
:100C4000490102F01BF8002801D000F015FF002137
:100C5000200002F039F8002801D000F00DFF10BD8F
:100C600000540040B40200201305100010B5040029
:100C700088B01422002103A802F092FD144B2268D0
:100C80009A4223D1134C144A636D14481340022234
:100C90006365636B03A913436363636B1340019341
:100CA000019BC0230393AE3B0493113B05939B1818
:100CB00006930333079301F0E1FB8022E36B920379
:100CC0001343E363E36B13400293029B08B010BD30
:100CD0000054004000100240FFCFFFFF000400500E
:100CE0000748084B10B5036002234360064BC360FE
:100CF000836002F00DF8002801D000F0BDFE10BDA9
:100D00000803002000300040FF0F000010B50A4C1F
:100D10000021200002F0A8FC0421200002F0A4FC25
:100D20000021064802F0A0FC0023054A53639363A8
:100D3000044A536310BDC0462004002088030020ED
:100D4000002C0140004801400C4B70B50D00198883
:100D5000404389B2FFF7D8F904002800084B6043EC
:100D6000198889B2FFF7D0F9064B241AA4B2986308
:100D70005C63054801F0FEFF70BDC0462C000020FA
:100D800028000020002C014008030020F7B50400D3
:100D900009200D0048430A211600FFF73FFAC82733
:100DA00083B201937F00002C00D1F7BD0A4B1B7862
:100DB000002B0DD031000198FFF7C6FFC820FFF7C8
:100DC00029FD28003100FFF7BFFF3800FFF722FDA3
:100DD000013CE4B2E7E7C0468003002070B5037829
:100DE0000C001600002B15D000252800310001351D
:100DF000FFF7AAFFADB20520FFF70CFDAC42F4D21D
:100E000070BD20003100FFF79FFF013C0520A4B218
:100E1000FFF700FD002CF4D1F2E700001922034B8C
:100E2000002801D0962292005A6370470048014082
:100E3000F8B5040018780E0015001F00002817D020
:100E40000B782088002B1BD11B4B1B8883422ED292
:100E5000013880B220801188FFF776FF23E02988CF
:100E6000FFF772FF2E20FFF7D5FC2088013080B2FB
:100E7000114B20801B888342F1D801233B703370D3
:100E80000E4E20883388984211D2013080B22080E3
:100E90002988FFF759FF21883388994203D101201F
:100EA0002A88FFF773FF2E20FFF7B4FCF8BD044833
:100EB00001F060FFF7E7C0462A0000202C00002068
:100EC0000803002010B512780C000B88002A0DD002
:100ED0000A4A12889A420DD9013399B221800088BA
:100EE000FFF732FF2E20FFF795FC10BD002B01D03D
:100EF000013BF2E7024801F03DFFF3E72800002044
:100F000008030020F0B51A4B1A4C5B7862781B027C
:100F10001343194D5BBA2B80184F98B2E3782279AE
:100F20003B706379164E1B0213435BBA338099B250
:100F3000144B85B00393A379039A1370E279124B93
:100F4000012A11D11A70FFF7FFFE2378002B09D078
:100F5000039C0D4A24783B781278318828880094C5
:100F6000FFF750FD05B0F0BD00201870EBE7C0465C
:100F7000050000200400002026000020820300203D
:100F800024000020810300208003002070B500268B
:100F9000FF250E4C32206663FFF74CFC3220656360
:100FA000FFF748FC32206663FFF744FC322065639C
:100FB000FFF740FC064B1878064B1988B04201D069
:100FC000054B1888FFF7C0FE70BDC04600480140C1
:100FD0008003002024000020260000200022F8B515
:100FE0001300184CA15C01325B189BB20F2AF9D197
:100FF000154A1380E27BDBB29A4201D00020F8BD93
:101000000023012619001A00104D11482B70C75CEF
:10101000BC46E75CBC4502D131000132D2B201339B
:10102000102BF4D1002902D02A700F2AE6D8102202
:10103000210002F0E1FB10220021200002F0B0FBB1
:101040000120DCE714000020680300206F0300206B
:101050000400002080221E4B5200196810B50A437C
:101060001A608022D20019681142FCD05968194ACE
:1010700011408022D2010A435A601968164A114071
:10108000802252010A431A600122196E0A431A662D
:101090000222196E1142FCD09A6810490A400721B9
:1010A0009A609A688A439A60382299681142FCD102
:1010B0009A680B490B480A409A6002F06BFB0320C8
:1010C00001F04CF8002801D072B6FEE710BDC04612
:1010D00000100240FF80FFFFFFC7FFFFFFF0FFFF90
:1010E000FF8FFFFF001BB7000023F0B58BB0089304
:1010F00001F05CF8FFF7AEFFFFF730FDFFF788FD6A
:1011000000F0A6FD00F0EAFC00F028FEFFF7E8FD85
:10111000A0200421C00501F065FA1623002800D0A4
:101120000B3BA020CD4A0821C0051370069201F0A8
:1011300059FA2C23002800D00B3BC94C2370FFF731
:1011400025FC069B1B78162B01D1FFF771FCC54BC4
:10115000C5490793C54BC6480593C64B059A0093EE
:10116000079BFFF7E1FCFFF7B5FCC34B1860FFF7E7
:10117000D5FCC24A03001060069A12780B2A04D1EB
:10118000BF48834201D0FFF731FC80210022BD48D7
:10119000090201F02DFAFFF793FA069B1B78162B34
:1011A00007D10A2001F020F8FFF7DBF90A2001F04F
:1011B0001BF8069B1B780B2B07D10A2001F014F8B3
:1011C000FFF7CFF90A2001F00FF82378212B00D088
:1011D000D6E002220027AC4B96261A70AB4BAC4CE3
:1011E0001F707823AB4DB60026802B80AA4B1E8043
:1011F00000F00AFEA94B2A881F805A80B4225200B0
:101200009A802288DA809622A54B52001F805A804D
:101210009E80A44801F0CEFEFFF778FD0A20FFF77C
:1012200009FB00F0A5FE0A20FFF704FB00F0F6FE24
:101230000A20FFF7FFFA059B1B78002B06D08A4B8C
:1012400001201A888A4B1988FFF7C8FD0122964BA6
:101250001A70964801F08EFD069B1B78162B08D15C
:10126000934C2368013B082B03D8FFF7B3FB002303
:101270002360904B1C78002C36D18F4D1021280014
:10128000FFF7F4F98D4B187000282DD0AC21AA205F
:101290006B7A2A7A1B021343AA7AC90512041A43ED
:1012A000EB7A874D1B0613431ABA51182A60C00502
:1012B000814202D983498B4216D1069909781629B1
:1012C00000D08FE0AA2109068A4200D8CCE27E4BEA
:1012D0009A4209D8694C23689A4272D1FFF77EFE80
:1012E000002801D0FFF70EFE784D2878012814D190
:1012F000774B1A8896B2002A0FD10100754A1478EC
:10130000614011705A4A1188574A1288002C00D047
:1013100072E1714C1C80FFF739FD80266F4CB600DE
:10132000636BB34200D20CE2504B1A786C4B002A2C
:1013300000D092E11A806A4A616B1388B14202D3ED
:10134000092B00D85BE14A4A11880A2B00D06CE1D6
:1013500080270126BF004648616B0388414AB94295
:1013600000D352E14B49088849480088984203D08D
:101370000988994200D0A0E1012311784B406AE12D
:101380002C2B00D045E7002704223F4B404C1F7018
:101390003E4B404D1A706E23524E26802B803E4BA2
:1013A0001E8000F031FD3D4B2A881F805A80A52207
:1013B00052009A802288DA801422394BFF321F8033
:1013C00025E72F4A93428FD1FFF708FE00288BD0E4
:1013D0002868FFF70BFB2B682360FFF793FDFFF7EF
:1013E000D5FD81E70B2900D07EE7EA2109068A4274
:1013F00000D8E7E13C4B9A4200D975E7FFF7EEFDD4
:10140000002800D170E7394B9A7B012A00D0EAE02E
:101410005B78012B00D09AE0144C134A2578118890
:101420001E48134A002D65D12370314C237040882B
:1014300010800C4A1370FFF787FC079B059A0A4936
:101440000B481B781278098800880A4C247800948D
:10145000FFF7D8FA0F22174B1A7045E76B030020ED
:101460006A03002082030020240000208003002063
:101470002600002081030020640300205C0300207C
:10148000FFFFFFAA000800506D0300206C0300203E
:101490002C0000202A000020280000204C030020FF
:1014A00046030020D40300207A0300200803002014
:1014B000000000206E0300201400002070030020B4
:1014C000600300200DEAD1D0999999AA72030020F7
:1014D0007403002071030020983A00000048014086
:1014E0008403002026020000999999EA0400002054
:1014F0005503002000251288060009922A0037882B
:10150000BC46099FBC4502D8D5B208951D000132E2
:1015100092B20236042AF2D1BF4A002D01D0089BB4
:1015200013701378BD4D0133DBB21370032B05D953
:1015300000200123107020702B707CE7032B01D159
:1015400000222A705B00185AB54B188073E7022BF3
:1015500039D100273D00B349B34E0888318888420D
:101560007D41EDB209957588854228D80992B688E3
:10157000864226D9099B002B01D0AC4B1A70AC4B8C
:101580001A78002A01D101321A7081420AD8A74A7A
:1015900013780133DBB2022B00D81C00A24B14706D
:1015A0006400E15A9E4C9F4D20882980FFF7CCFBB8
:1015B000079B9F4A1B7812782988208845E73A00C4
:1015C000D5E71A00D9E7032B00D08DE6984B1B789E
:1015D000002B00D188E60020059B1870914B1988DC
:1015E000FFF7B2FB36E7002A00D07DE6FFF78AFC62
:1015F00030E7002018700BE102202E708BE60133DB
:1016000032201380FFF716F995E6002B03D11378EB
:10161000002B00D11670834A059B0799FFF708FC41
:10162000844B854A2E701A8095E6059B05981A789A
:1016300001235340059A13707A4B1A88FFF7CEFBAB
:10164000069B1B780B2B01D17C4A13700023794A2F
:101650002B7013807A4A13702FE000221A80794A87
:10166000616B1388B14201D3092B3BD90A2B51D1AD
:1016700080260127B600636B6A496948B34237D2B6
:10168000714A03881288934203D0704A12889342A9
:1016900005D16B4B614A1B78002B00D16CE66C4A7C
:1016A0000B881288934201D0002B06D1644B694A03
:1016B0001B781178012B00D160E6664C079B059AD8
:1016C0005849574824781B78127809880088009474
:1016D000FFF798F9069B1B780B2B00D0BCE5574A07
:1016E0001370B9E5013332201380FFF7A3F8B6E792
:1016F000534B1B78002B09D10A004D4B4749FFF78C
:1017000097FB4C4B4C4A2F701A80B4E7514AFFF7B5
:10171000D9FBF6E70026636B636B059B16801A788E
:1017200001235340059A059813703E4B1A883C4B91
:101730001988FFF753FB3F4B2E701E80404B1E70E5
:10174000BBE7069B1B780B2B00D082E53B4D2B782B
:10175000092B07D90A2000F047FDFEF7E8FE0A2012
:1017600000F042FD2B78002B00D172E53A4B0821A6
:101770000393059B2A4A0293364B01200193294B80
:101780000093079BFEF736FF0A2000F02DFDFF2394
:1017900063632B78013BDBB22B70012B00D058E543
:1017A0000A2000F021FDFEF7DCFE0A2000F01CFDFF
:1017B00010212A48FEF75AFF0A2000F015FD0023E9
:1017C0002B7046E5AA2B00D08EE5FFF707FC00281A
:1017D00000D189E5224A234B5278597812020A43F4
:1017E0000F4952BA0A8090B20799DA780D4C0A7004
:1017F0005A79197912020A4352BA22809C7991B21D
:10180000144A1470DA790A4B012A00D0F1E61A70F2
:10181000FFF79AFA68E5C0465503002082030020CE
:10182000260000202400002046030020540300204E
:101830008003002074030020983A00006E0300200B
:1018400071030020840300202C0000202A000020C7
:1018500028000020810300206403002014000020E1
:101860000500002004000020AA2BAED0094A9342B4
:1018700000D039E5084D094C2B68A34200D133E56F
:10188000FFF7ACFB002800D12EE52000FFF7AEF8F3
:101890002C60A4E50DEAD1D05C030020FFFFFFAA75
:1018A000F7B5102000F0E8FC604A1368002B01D067
:1018B000013B13605E4B1B78002B04D05D4A1388FC
:1018C00001339BB213805C4A1388002B03D013882A
:1018D000013B9BB21380594B00931B78002B0ED019
:1018E000574A1368013B1360002B01D100990B701C
:1018F000544B5B6B002B02D11360009A1370524A59
:10190000524914880192FA22920062430B88F53200
:1019100001339BB2FF320B80934228DD00230B8002
:101920009C4255D14A4B1E78012E20D1494D2F782B
:1019300000F04EFB2A78484B01327F00D2B2D853D8
:101940002A700A2A13D1019A444916800B2208688A
:10195000013AD2B2002A36D1002C00D008600868C3
:101960000A21FEF7D1FB00233D4C2B702080FA2189
:101970003C4A4900138801339BB213808B421ED925
:10198000019B1B88002B1AD00024148000F020FB40
:10199000354B1880324B1B881A009132FF3290422F
:1019A0003BDD324D2B78A34209D1009B01341C70E2
:1019B0002F4A234B20001A60FFF730FA2C701020BA
:1019C00000F04EFCF7BD1C88023300193400BFE75D
:1019D000009B1C78002CCAD100F0FAFA0100224BBF
:1019E0001E4E18801B4B1C4D9C461B7832685F00B6
:1019F000785B0133101ADBB24018092B00D81C00A9
:101A00006346E9531C700A213060FEF77DFB144BDE
:101A100080B21880174B1880A9E7FA339842CEDCC1
:101A20002000FFF7FBF9114B1C70C8E700000020F5
:101A30007603002078030020740300204403002074
:101A400040030020004801403A0300203C030020EE
:101A50007A03002038030020240300202003002004
:101A60001C0300201A0300207C0300201803002020
:101A700050C300007E03002072B6FEE701210A4B2E
:101A800082B01A6C0A431A641A6C0A4080210092D0
:101A9000009ADA6B49050A43DA63DB6B0B4001936A
:101AA000019B02B07047C04600100240FEE7FEE70F
:101AB0007047704710B500F085FB10BD10B50248A7
:101AC00001F0AAFA10BDC046D40300208022024BC8
:101AD00012059A607047C04600ED00E010B588B06E
:101AE0001022002104A801F05BFE0C22002101A8B5
:101AF00001F056FE144C154B154A236000232000BC
:101B00006360A36023618033E260A36101F06EFB38
:101B1000002801D0FFF7B0FF802320005B0104A95B
:101B2000049301F085FC002801D0FFF7A5FF0023F6
:101B3000200001A90193039301F09AFD002801D030
:101B4000FFF79AFF08B010BDD40300200004004046
:101B5000AF0400001FB50368184A93420BD18021DF
:101B6000174B09011A6C0A431A641B6C0B40019352
:101B7000019B05B000BD134A934211D10221104BC5
:101B80001020DA6B0A43DA630022DB6B0B4002930E
:101B90001100029B00F03AFB102000F061FBE8E727
:101BA000094A9342E5D18021054BC9021A6C0A43C8
:101BB0001A641B6C0B400393039BDAE7002C014073
:101BC00000100240000400400048014010B504002D
:101BD00088B01422002103A801F0E2FD2368184A0E
:101BE000934216D10123174AA020516BC005194317
:101BF0005163526B06931A400192019A03220433F7
:101C00000392013A0492079303A900F037FC08B04D
:101C100010BD0D4A9342FAD104210A4B0B485A6B6E
:101C20000A435A635B6B0B400293029B8023DB01E8
:101C30000393022304930833079303A9E5E7C046FF
:101C4000002C0140001002400048014000080050F4
:101C500010B59CB01022002104A801F0A1FD0C22B7
:101C6000002101A801F09CFD1C22002108A801F020
:101C700097FD342200210FA801F092FD344C354B22
:101C8000354A2360002320006360A360E260236183
:101C90006361A36101F0AAFA002801D0FFF7ECFE0E
:101CA000802320005B0104A9049301F0C1FB0028FC
:101CB00001D0FFF7E1FE200001F0C2FA002801D0B8
:101CC000FFF7DAFE0023200001A90193029303939A
:101CD00001F0CEFC002801D0FFF7CEFE00226023E9
:101CE000200008A9089309920A920B920C920D9277
:101CF0000E9201F00BFB002801D0FFF7BDFE04227D
:101D0000200008A901F002FB002801D0FFF7B4FE73
:101D100080229201149280220023920420000FA9B5
:101D20000F93109311931293139315931693179384
:101D3000189219931A931B9301F0CAFC002801D042
:101D4000FFF79AFE2000FFF741FF1CB010BDC04610
:101D500020040020002C01405702000030B595B04F
:101D60001C220021684601F01BFD3422002107A837
:101D700001F016FD214D224B224A2B600023280042
:101D80006B60AB602B616B618033EA60AB6101F02B
:101D90002DFA002801D0FFF76FFE280001F050FA5D
:101DA000002801D0FFF768FE002460232200694666
:101DB00028000093019402940394049405940694DB
:101DC00001F0A4FAA04201D0FFF756FE80232800BC
:101DD0009B0107A90794089409940A940B940C9307
:101DE0000D94139401F074FC002801D0FFF744FE19
:101DF0002800FFF7EBFE15B030BDC0468803002079
:101E0000004801405702000010B59CB0102200218C
:101E100004A801F0C5FC0C22002101A801F0C0FCBF
:101E20001C22002108A801F0BBFC342200210FA8CD
:101E300001F0B6FC354C364B364A2360002312883D
:101E40002000013A6360A360E26023616361A361E3
:101E500001F0CCF9002801D0FFF70EFE802320000E
:101E60005B0104A9049301F0E3FA002801D0FFF715
:101E700003FE200001F0E4F9002801D0FFF7FCFD8B
:101E80000023200001A901930293039301F0F0FBCA
:101E9000002801D0FFF7F0FD00226023200008A9F0
:101EA000089309920A920B920C920D920E9201F0F5
:101EB0002DFA002801D0FFF7DFFD0422200008A939
:101EC00001F024FA002801D0FFF7D6FD802292010C
:101ED000149280220023920420000FA90F931093E4
:101EE00011931293139315931693179318921993B2
:101EF0001A931B9301F0ECFB002801D0FFF7BCFD07
:101F00002000FFF763FE1CB010BDC0462004002077
:101F1000002C01402C00002002000123172010B5E6
:101F200086B06844064C5B42017002930233009015
:101F300027212000019300F0E9FC06B010BDC04647
:101F4000B4020020012330B5172587B0074C5B424F
:101F500002936D4402330200272120000193009573
:101F600000F0AEFD287807B030BDC046B4020020B6
:101F700010B50520FEF75EFC00218020FFF7CCFFA6
:101F80008120FFF7DFFF114C072120708220FFF72F
:101F9000C3FF8220FFF7D6FF212120708F20FFF79B
:101FA000BBFF8F20FFF7CEFF0A2120708320FFF7B1
:101FB000B3FF8320FFF7C6FF0B2120708020FFF7BF
:101FC000ABFF8020FFF7BEFF207010BD6C04002027
:101FD00010B58820FFF7B6FF04008720FFF7B2FF97
:101FE0000002204380B210BD70B5FFF7F1FF052459
:101FF00000253220FEF71EFCFFF7EAFF013CE4B2A9
:102000002D18002CF5D1044800F0B4FE280005215D
:10201000FEF77AF880B270BD0803002010B50520E5
:10202000FEF708FCFFF7E0FF364CA04269D9122109
:102030008320FFF771FF0520FEF7FCFBFFF7D4FFBD
:10204000A0425ED910218320FFF766FF0520FEF72E
:10205000F1FBFFF7C9FFA04253D90E218320FFF700
:102060005BFF0520FEF7E6FBFFF7BEFFA04248D965
:102070000C218320FFF750FF0520FEF7DBFBFFF765
:10208000B3FFA0423DD90A218320FFF745FF052079
:10209000FEF7D0FBFFF7A8FFA04232D9082183202A
:1020A000FFF73AFF0520FEF7C5FBFFF79DFFA042B3
:1020B00027D906218320FFF72FFF0520FEF7BAFB63
:1020C000FFF792FFA0421CD904218320FFF724FFD1
:1020D0000520FEF7AFFBFFF787FFA04211D90221D1
:1020E0008320FFF719FF0520FEF7A4FBFFF77CFF15
:1020F000A04206D983200121FFF70EFF0520FEF73D
:1021000099FB10BDC8AF00000D488546FFF7DEFC07
:10211000002103E00B4B5B58435004310A480B4B42
:1021200042189A42F6D30A4A02E0002313600432AE
:10213000084B9A42F9D301F03BFBFEF7D5FFFEE7CF
:10214000001800205C380008000000207400002007
:10215000740000208C040020FEE7000070B5104BD6
:1021600005001978002901D1012070BDFA208000F6
:10217000FDF7CAFF0B4C01002068FDF7C5FF00F01A
:102180008BF8041EF0D1032DEED8020001202900A7
:10219000404200F03BF8044B20001D60E5E7C046DC
:1021A00034000020300000203800002010B503204B
:1021B000FFF7D4FF041E03D1FFF760FC200010BD21
:1021C0000124FBE7034A044B11681B785B1813607A
:1021D0007047C0467004002034000020014B18688E
:1021E0007047C0467004002070B50400FFF7F6FF8A
:1021F0000500631C02D0044B1B78E418FFF7EEFFC8
:10220000401BA042FAD370BD3400002010B5FF245B
:1022100003220B0021000240D20091409B01234089
:10222000C943934000280ADBC0240B4A8008800081
:102230008018A40002590A401343035110BD0F2215
:1022400010400838054A800880008018C269114093
:102250001943C161F2E7C04600E100E000ED00E093
:10226000002805DB1F2318401E3B8340014A1360F2
:102270007047C04600E100E0002809DB1F2318403A
:102280001E3B8340034AD367BFF34F8FBFF36F8F6B
:102290007047C04604E100E08022431E5204012042
:1022A00093420DD2C021074A07485360036A0906CA
:1022B0001B021B0A0B43036200200723906013607C
:1022C0007047C04610E000E000ED00E00020054B44
:1022D0005A69824205DA044A9A60044A9A60586947
:1022E000C00F70470020024023016745AB89EFCD46
:1022F0008022044B120659690A435A615869C04347
:10230000C00F704700200240F8B505008027FFF796
:1023100065FF7F024619114C23693B4205D0FFF748
:102320005DFFB042F7D3032007E023690C4A134056
:10233000236103D001200B4A5360F8BDFFF74EFF25
:1023400080264519F6022369180030403342F4D044
:10235000FFF744FFA842F6D3E5E7C046002002405D
:10236000FAC3000074040020F7B5174E01933378C8
:1023700004000D0002200092012B1ED00123FA2040
:102380003370002380007360FFF7BEFF002812D176
:102390000E4F012C12D17B6923437B61009B2B6084
:1023A000BFF36F8F019B6B60FA208000FFF7ACFFDB
:1023B0007B69A3437B6100233370FEBD2800009935
:1023C00001F032FAF0E7C046740400200020024019
:1023D0007821044AC00053698B431843024B0343DE
:1023E000536170470020024002000100F7B5204F02
:1023F00005003B7802240191012B18D00123FA201B
:102400003B70002380007B60FFF77EFF041E0CD131
:102410002B68042B0DD1FA20164A174B5169800006
:102420000B435361FFF770FF040000233B70200053
:10243000FEBD0123019A5B4213606E686B68AA6857
:102440009B18B3420BD93000FFF7C2FFFA2080007F
:10245000FFF75AFF002808D00400019B1E600221EC
:10246000044A53698B435361DFE70136E6E7C04610
:1024700074040020002002400400010000239C4658
:10248000F0B585B00B6864461A00E24001D105B092
:10249000F0BD6246012696401A0032400192334256
:1024A00000D190E04F6810233D009D430395022D1D
:1024B00014D16346DA0892008218136A07241D00BB
:1024C00063461C400F23A400A3409D4302950F25A3
:1024D0000B692B40A340029C2343136263465A00BE
:1024E000032393400468DD439C4303233B40934014
:1024F0000295039D2343013D0360012D0FD884689D
:10250000029B01251C40CB689340234383603B0919
:102510002B406546AB404468B44323434360032FDC
:1025200051D0C468029B1C408B6893402343C36016
:1025300080235B051F4246D063469A08234B9200D6
:10254000D218032463461C400F23E400A340A026B6
:10255000156EF6059D430023B0420CD01C4E01338E
:10256000B04208D01B4E0133B04204D01A4BC318FE
:102570005E1EB3410533A3402B431366174B019AEC
:10258000DD6F019CD2432C43FE0301D42C00144088
:10259000DC67134C019DE36F1D43BE0301D4134060
:1025A0001D000A4BE5671D68019C2C43FE0201D407
:1025B0002C0014401C605C68019D2543BF0201D4BF
:1025C000144025005D6001239C445BE70018024035
:1025D000000400500008005000ECFFAF0418024057
:1025E0000818024000690840431E9841C0B2704775
:1025F000002A01D0816170478162FCE703689A6913
:10260000920701D500229A6201229969114202D1F2
:1026100099690A439A61704730B5039C0068234367
:10262000120489051A43890D054B45680A43640D58
:10263000234352009D4352082A43426030BDC046A6
:10264000FF63FF03F7B5150002680E0091691023C0
:102650000F0004001F40002019420DD00700D36175
:102660000190236820219A690A425FD1002F31D05E
:1026700004270120019B1F43802225685200AB697B
:10268000134202D00120EA6107438022D2001342A4
:1026900003D0082101200F43EA61802292001342F7
:1026A00049D00223EA611F432000FFF7A7FF6B68B0
:1026B000224A012013406B60636C20223B43636419
:1026C000230041331A702200002342324034137039
:1026D000237032E0721CC5D0FFF780FD401BB04272
:1026E00001D8002EBDD122002368423258681178EB
:1026F0009A69C9B212040BD58022D201104207D1C7
:10270000202905D059680A435A60FFF767FD050084
:10271000202223689B691342A3D1FFF75FFD401B72
:102720001928F5D92023012701939AE7002F9FD17B
:102730002022DA619CE70028B6D1FEBD00E800FE49
:10274000F8B504000D001600022723689B693B4280
:1027500001D0002021E0320029002000FFF772FFA5
:10276000002819D16B1CF0D0FFF738FD801BA84260
:1027700001D8002DE9D12368996902230A001A4083
:102780001942E2D12021636C0B436364230040347F
:10279000413319705A7022700120F8BDF8B5040059
:1027A0000D0017001E00226893692B405B1B5942E5
:1027B0004B41BB4201D000201FE0731CF4D0FFF757
:1027C0000DFD069BC01AB04201D8002EEBD1236844
:1027D0009B692B405B1B5A425341BB42E3D12022F1
:1027E000636C012013436364230041331A70220099
:1027F00000234232403413702370F8BDF8B5040052
:102800000E001700202523689B692B4201D0002071
:102810001DE03A0031002000FFF714FF002815D119
:10282000FFF7DCFCC01BB04201D8002EEBD12368BF
:102830009B691A002A402B42E5D1636C2B436364E9
:102840002300403441331D705A7022700120F8BDBE
:1028500070B504000120002C4ED0250041352B78A6
:10286000DAB2002B05D12300403320001A70FEF7A6
:10287000FDF9242301212B702368E0681A68A668FB
:102880008A431A601D4962680A401A619A681C49A5
:102890000A409A60012807D18022120232439A60CE
:1028A0005A681848024009E08422120232439A60B2
:1028B0000228F5D180225868120102435A605868F4
:1028C000114A02435A60DA6800200A40DA606169FE
:1028D00022690A43A16909020A43DA60216AE269AE
:1028E0000A431A60012219680A431A6020236064AF
:1028F0002B7020634234207070BDC046FFFFFFF094
:10290000FF7FFFFFFFF7FFFF00800002F0B5070029
:1029100087B003930CAB029204CB41371B8804921F
:1029200005933B7804000E000220202B08D1002ADA
:1029300002D0059B002B05D180239B0063640120FE
:1029400007B0F0BD230040331A780220012AF7D0E7
:1029500001221A70FFF742FC802105000090192324
:10296000012220000902FFF719FF0028E7D12123E7
:102970003B7027001F3342373B70049B60646362E7
:10298000059B606363856B461A7B4B4B310000935C
:10299000802320005B04FFF73FFE2A0020000E99F1
:1029A000FFF7CEFE002829D1039A2368012A16D109
:1029B0006A46127A9A620022802120000E9B0095BE
:1029C000FFF7ECFE002819D1638DFF2B1AD8802366
:1029D000628D9B0492B22285D2B2009017E0029AD7
:1029E0002000120A9A620E992A00FFF7A9FE002819
:1029F00004D16B4622681B7A9362DCE700234034E3
:102A000023709CE7FF22802322855B040090310025
:102A10002000FFF701FE2A0020000E99FFF790FE2C
:102A2000002800D08BE7636A22681978013391622D
:102A30006362638D228D013B9BB26385013A638D96
:102A400092B22285002B16D0002A14D180212000BA
:102A50000E9B0095FFF7A2FE002800D06FE7638D64
:102A6000FF2B21D9FF22802322855B0400903100B7
:102A70002000FFF7D1FD638D002BCCD12A00200070
:102A80000E99FFF7BBFE002800D058E720212368ED
:102A90000A4DD9615A682A405A60230040344133B4
:102AA0001970387020704BE78023628D9B0492B2BE
:102AB0002285D2B20090DAE70020008000E800FE14
:102AC000F0B5060087B003930CAB029204CB4136FD
:102AD0001B8804920593337804000F000220202BFA
:102AE00008D1002A02D0059B002B05D180239B0032
:102AF0006364012007B0F0BD230040331A78022040
:102B0000012AF7D001221A70FFF768FB80211923F0
:102B100000900500012220000902FFF73FFE031E7E
:102B2000E7D12222327026001E3242363270049AD9
:102B300060646262059A4E4962856A466063127BF0
:102B4000200000913900FFF767FD2A0020000E9950
:102B5000FFF7F6FD00282AD1039A2368012A17D12E
:102B60006A46127A9A620022402120000E9B00954C
:102B7000FFF714FE00281AD1628D3E4BFF2A1AD8A7
:102B8000628D92B2228500938023D2B29B0417E01B
:102B9000029A2000120A9A620E992A00FFF7D0FDCD
:102BA000002804D16B4622681B7A9362DBE700237E
:102BB000403423709DE7FF222285009380235B042D
:102BC00039002000FFF728FD0022042120000E9B81
:102BD0000095FFF7E3FD002800D08AE723685A6AD2
:102BE000636A1A70636A228D01336362638D013AEE
:102BF000013B9BB26385638D92B22285002B16D078
:102C0000002A14D1802120000E9B0095FFF7C6FDFD
:102C1000002800D06DE7638DFF2B21D9FF22802390
:102C200022855B04009039002000FFF7F5FC638DDE
:102C3000002BC9D12A0020000E99FFF7DFFD0028E4
:102C400000D056E7202123680B4DD9615A682A40ED
:102C50005A6023004034413319703070207049E7C6
:102C60008023628D9B0492B22285D2B20090DAE773
:102C7000002000800024008000E800FEF0B5040081
:102C80004134227803000F000220D6B2202A18D146
:102C90001D0040352A78012A13D0242222701B6897
:102CA000233A1968074891431960196801400020C8
:102CB000196019683943196019680A431A60267047
:102CC0002870F0BDFFEFFFFF0200F0B5413214782D
:102CD0000300E5B20220202C17D11C0040342678D6
:102CE000012E12D0223010701B6823381E68074F47
:102CF00086431E601E6809023E4031431960196810
:102D000008431860002015702070F0BDFFF0FFFF31
:102D100070B504000120002C16D02368124A072643
:102D20001A60124A1A6062685A60A2689A60FFF7D5
:102D300055FA05002368DA68324206D11969E2685B
:102D400091420DD01A61002070BDFFF747FA401B79
:102D50003128EFD92368DB683342EBD00320F3E757
:102D6000034A1A60EFE7C046CCCC0000555500007E
:102D7000AAAA00000368024A00201A607047C046F1
:102D8000AAAA000070B50124036A026AA243026283
:102D90004468164A856915400A6815430222934320
:102DA0008A681343124A904205D0124EB04202D0B4
:102DB000114EB04213D10826B343CE6833430426E4
:102DC000B343904205D00B4A904202D00A4A904247
:102DD00005D10A4A8E6922404C69344314434A683B
:102DE000446085614263036270BDC0468CFFFEFF94
:102DF000002C01400044014000480140FFFCFFFF5F
:102E000070B5174A056A036A134003624268154B9E
:102E1000C4691C400B681C43134B1D408B681B028C
:102E20002B43124DA8420ED1114D1D40CB681B0201
:102E30002B43104D2B40104D4E6915408A6932438B
:102E400012012A4305E00D4DA842F4D00C4DA842D2
:102E5000F1D042604A68C461C263036270BDC0467B
:102E6000FFFEFFFF8CFFFEFFFFFDFFFF002C014078
:102E7000FFF7FFFFFFFBFFFFFFCFFFFF0044014015
:102E80000048014030B5124A046A036A114D1340EC
:102E900003624368C2692A400D682D0215430E4A39
:102EA00014408A68120322430C4CA04205D00C4CFB
:102EB000A04202D00B4CA04204D10B4C1C404B69E9
:102EC0009B01234343604B68C5610364026230BDCC
:102ED000FFEFFFFFFF8CFFFEFFDFFFFF002C014035
:102EE0000044014000480140FFBFFFFF70B5066A83
:102EF000104C036A104A234003624368456D154035
:102F00000A6815430D4A16408A68120432430C4E73
:102F1000B04205D00B4EB04202D00B4EB04203D1AE
:102F20001C404B691B02234343604B684565836526
:102F3000026270BDFFFFFEFF8FFFFEFFFFFFFDFF80
:102F4000002C0140004401400048014030B5124AC5
:102F5000046A036A114D134003624368426D2A40BC
:102F60000D682D0215430E4A14408A68120522434B
:102F70000C4CA04205D00C4CA04202D00B4CA042FD
:102F800004D10B4C1C404B699B02234343604B68AC
:102F90004565C365026230BDFFFFEFFFFF8FFFFE97
:102FA000FFFFDFFF002C01400044014000480140CA
:102FB000FFFFFBFF01000300012010B53D310C783D
:102FC000E2B2844218D1001808701B68D968114316
:102FD000D9600B498B4202D00A498B420DD19A68C5
:102FE00009490A40062A06D007398A4203D001223D
:102FF00019680A431A60002010BD1968F9E7C04635
:10300000002C014000040040070001007047704799
:1030100070477047704700000222036870B5DD6892
:103020001E69040016420DD015420BD0053A1A61F4
:10303000043202779B699B0700D17CE0FFF7E8FF31
:103040000023237704231E4212D01D4210D00522F4
:10305000236852421A61073222779A69C0239B0083
:1030600020001A4200D16CE0FFF7D2FF0023237743
:1030700008231E420FD01D420DD009222368524260
:103080001A610D322277DB6920009B075FD0FFF7C2
:10309000BFFF0023237710231E4211D01D420FD003
:1030A0001122236852421A6119322277DA69C02349
:1030B0009B0020001A4250D0FFF7AAFF002323777D
:1030C00001231E4208D01D4206D00222236852422C
:1030D00020001A61FEF7E4FB80231E4208D01D4247
:1030E00006D081222368524220001A6100F04FFB73
:1030F000F30507D52B0605D523681B4A20001A6166
:1031000000F046FB40231E4208D01D4206D041225B
:103110002368524220001A61FFF77CFF20231E42E1
:1031200008D01D4206D021222368524220001A6195
:1031300000F02CFB70BDFFF76AFF2000FFF769FF6E
:103140007EE7FFF764FF2000FFF763FF8EE7FFF7DE
:103150005EFF2000FFF75DFF9BE7FFF758FF2000B1
:10316000FFF757FFAAE7C046FFFEFFFF194A10B559
:103170000368904202D0184CA04208D17024A343A7
:103180004C68234390420BD0134CA04208D0134C00
:10319000A04205D0124CA04202D0124CA04203D152
:1031A000114C1C40CB6823438024A3434C69234328
:1031B00003608B68C3620B688362904205D0084B42
:1031C000984202D0074B984201D10B690363012357
:1031D000436110BD002C014000040040002000406D
:1031E0000044014000480140FFFCFFFF70B50400AF
:1031F0000120002C23D025003D352B78DAB2002B9E
:1032000005D123003C3320001A70FEF7A3FC0223F3
:103210002B702068211DFFF7A9FF22000123002049
:103220004832137047340A3A137053709370D37056
:10323000137153719371D371137223702B7070BD1E
:1032400070B504000120002C23D025003D352B78DB
:10325000DAB2002B05D123003C3320001A70FFF7AF
:10326000D5FE02232B702068211DFFF77FFF22006F
:10327000012300204832137047340A3A1370537008
:103280009370D370137153719371D3711372237050
:103290002B7070BD102270B5056A036A164C9343FB
:1032A00003624268836923400C6824021C43202384
:1032B0009D438B681B012B43104DA8420FD18025E5
:1032C000AB431E00CB68403D1B013343AB430C4D69
:1032D0004E6915408A69324392002A4305E0094D40
:1032E000A842F4D0084DA842F1D042604A688461F7
:1032F0008263036270BDC046FF8CFFFE002C01405C
:10330000FFF3FFFF0044014000480140F8B507000B
:103310003C3715003A7803000C000220012A0CD03B
:10332000013838700C2D51D008D8042D2DD0082D1F
:103330003CD0002D17D000233B70F8BD102D58D085
:10334000142DF8D11D682800FFF700FE80236A6D58
:103350001B0113436B656B6D2E4A13406B6523692C
:103360006A6D1B0253E01D682800FFF70BFD082360
:10337000AA6913430422AB61AB699343AB61AB69A8
:1033800022691343AB610020D5E71D682800FFF7D1
:1033900081FF8023AA691B011343AB61AB691D4AFE
:1033A0001340AB612369AA691B02EAE71E6830007B
:1033B000FFF726FD0422F3691D43F561F36993438A
:1033C000F361F36922691343F361DCE71D682800A8
:1033D000FFF758FD8023EA691B011343EB61EB699A
:1033E0000C4A1340EB612369EA691B021343EB614A
:1033F000C9E71D682800FFF779FD08236A6D1343AC
:1034000004226B656B6D93436B656B6D226913438F
:103410006B65B8E7FFFBFFFF30B58468034D0A43D7
:103420001B022C4013432343836030BDFF00FFFF8A
:10343000F8B5050002223C352C7803001000012C61
:103440001BD01E0001383D36287032701C68414A7E
:10345000A3681340A3600B68602B4ED02DD8402B7F
:1034600062D013D8202B0BD008D81022190091431A
:1034700006D00123337000232B70F8BD302BF8D118
:10348000A26835490A401343072228E0502BF0D1A7
:103490004A68CB68216A276A1B0187432762F027A5
:1034A000A069B84303430A2081430A43A36122620F
:1034B000294BA2681A40572311E0802252019342FF
:1034C0000FD08022920193420DD0702BD1D1CB68C6
:1034D0004A6820008968FFF79FFF7723A26813439B
:1034E000A3600020C5E7CB684A6820008968FFF721
:1034F00093FF8023A268DB01F1E710274B68CA68BD
:10350000216A206A1203B8432062A069134F1B018D
:1035100038400243A02081430B43A2612362A2688A
:103520000D4B1A406723DAE74A68CB68216A276A9D
:103530001B0187432762F027A069B84303430A2091
:1035400081430A43A3612262034BA2681A404723C6
:10355000C5E7C0468800CEFF8FFFCFFFFF0FFFFFFC
:103560001F2310B5012419408C408A40036AA343ED
:103570000362036A1A43026210BD0000020010B524
:1035800008291CD006D800290BD0042914D0130018
:10359000433308E00C2915D01029F8D10300423339
:1035A00001E003003E331B78013B581E8341DBB230
:1035B0000120002B09D010BD03003F33F3E70300C7
:1035C0004033F0E703004133EDE70223082933D00D
:1035D00006D800290BD004292BD01000433008E076
:1035E0000C292CD01029F8D11000423001E0100035
:1035F0003E300370146801222000FFF7B1FF154A26
:1036000094421FD0144B9C421CD0144B9C4219D0A6
:10361000134B9C4207D1A368124A1340062B06D0D5
:10362000073A934203D0012322681343236000200A
:10363000C1E710003F30DCE710004030D9E7100050
:103640004130D6E78023616C1B020B4363649442D4
:10365000E1D0DDE7002C014000440140004801407A
:10366000000400400700010010B5FFF787FF10BD00
:10367000F0B5040002223C34257803001000012D2F
:103680001FD01D003D352A701A680E4E5368906891
:10369000B24203D10C4F3B404F683B437027BB43C2
:1036A0000F683B435360B24202D0084B9A4204D1A8
:1036B000802398438B6818439060012300202B706F
:1036C0002070F0BD002C0140FFFF0FFF0004004000
:1036D00010B504003C34237802000220012B39D0BD
:1036E0001D48CB6812680340886803431B480340A9
:1036F000486803431A4803400868034319480340D5
:1037000008690343184803404869034317480340C6
:10371000086B0343164803408869000403431548B7
:10372000824214D114481840CB691843134B1840F7
:103730008B6A1B05034312480340086A0343114880
:103740000340486AC96A03430F4803400B43002003
:103750005364207010BDC046FFFCFFFFFFFBFFFF5E
:10376000FFF7FFFFFFEFFFFFFFDFFFFFFFBFFFFFE1
:10377000FFFFF0FF002C0140FFFFFFEFFFFF0FFFF7
:10378000FFFFFFFEFFFFFFFDFFFFFFDF70477047FA
:1037900070470000014B18607047C04630000020A1
:1037A00003008218934200D1704719700133F9E782
:1037B00070B500260C4C0D4D641BA410A64209D117
:1037C000002600F023F80A4C0A4D641BA410A64200
:1037D00005D170BDB300EB5898470136EEE7B30052
:1037E000EB5898470136F2E754380008543800087F
:1037F0005838000854380008002310B59A4200D108
:1038000010BDCC5CC4540133F8E70000F8B5C046E5
:10381000F8BC08BC9E467047F8B5C046F8BC08BC6A
:103820009E4670470000000001B40248844601BC77
:08383000604700BF3D000020CD
:1038380012EC6FA14600F6375D00D521EB2C5A40FB
:0C384800001F000BDF0200CCCCCCCCCC6D
:04385400E90000087F
:04385800C1000008A3
:10385C0050C300000102030405060708090A0B0CFB
:10386C000D0E0F100102030405060708090A0B0CC4
:10387C000D0E0F102C016400580278005802000045
:10388C00006CDC02010000000400000080220C4BE4
:10389C0030B55C69D20222435A61EFF3108272B6E2
:1038AC004C1CFF34401A0D68455004318C42FAD13F
:1038BC008021490218690842FCD182F3108830BD7E
:0438CC000020024096
:0400000508002109C5
:00000001FF
